{
  "_format": "hh-sol-artifact-1",
  "contractName": "Bank",
  "sourceName": "contracts/BankContract.sol",
  "abi": [
    {
      "inputs": [],
      "stateMutability": "nonpayable",
      "type": "constructor"
    },
    {
      "inputs": [],
      "name": "bankName",
      "outputs": [
        {
          "internalType": "string",
          "name": "",
          "type": "string"
        }
      ],
      "stateMutability": "view",
      "type": "function"
    },
    {
      "inputs": [],
      "name": "bankOwner",
      "outputs": [
        {
          "internalType": "address",
          "name": "",
          "type": "address"
        }
      ],
      "stateMutability": "view",
      "type": "function"
    },
    {
      "inputs": [
        {
          "internalType": "string",
          "name": "_newBankName",
          "type": "string"
        }
      ],
      "name": "changeBankName",
      "outputs": [],
      "stateMutability": "nonpayable",
      "type": "function"
    },
    {
      "inputs": [
        {
          "internalType": "address",
          "name": "",
          "type": "address"
        }
      ],
      "name": "customerBalance",
      "outputs": [
        {
          "internalType": "uint256",
          "name": "",
          "type": "uint256"
        }
      ],
      "stateMutability": "view",
      "type": "function"
    },
    {
      "inputs": [],
      "name": "depositMoney",
      "outputs": [],
      "stateMutability": "payable",
      "type": "function"
    },
    {
      "inputs": [],
      "name": "getBankBalance",
      "outputs": [
        {
          "internalType": "uint256",
          "name": "",
          "type": "uint256"
        }
      ],
      "stateMutability": "view",
      "type": "function"
    },
    {
      "inputs": [],
      "name": "getCustomerBalance",
      "outputs": [
        {
          "internalType": "uint256",
          "name": "",
          "type": "uint256"
        }
      ],
      "stateMutability": "view",
      "type": "function"
    },
    {
      "inputs": [
        {
          "internalType": "address payable",
          "name": "_to",
          "type": "address"
        },
        {
          "internalType": "uint256",
          "name": "_total",
          "type": "uint256"
        }
      ],
      "name": "withdrawMoney",
      "outputs": [],
      "stateMutability": "payable",
      "type": "function"
    }
  ],
  "bytecode": "0x608060405234801561001057600080fd5b50336000806101000a81548173ffffffffffffffffffffffffffffffffffffffff021916908373ffffffffffffffffffffffffffffffffffffffff160217905550610cd8806100606000396000f3fe60806040526004361061007b5760003560e01c80637b83b50b1161004e5780637b83b50b1461011b578063a853409a14610146578063e147aaa714610171578063f274c8971461019c5761007b565b806316c05aa2146100805780631f12f6f01461008a57806327d35801146100b357806337ebe47b146100de575b600080fd5b6100886101b8565b005b34801561009657600080fd5b506100b160048036038101906100ac9190610776565b610254565b005b3480156100bf57600080fd5b506100c86102fc565b6040516100d59190610892565b60405180910390f35b3480156100ea57600080fd5b5061010560048036038101906101009190610711565b61038a565b6040516101129190610914565b60405180910390f35b34801561012757600080fd5b506101306103a2565b60405161013d9190610914565b60405180910390f35b34801561015257600080fd5b5061015b610439565b6040516101689190610914565b60405180910390f35b34801561017d57600080fd5b50610186610480565b6040516101939190610877565b60405180910390f35b6101b660048036038101906101b1919061073a565b6104a4565b005b60003414156101fc576040517f08c379a00000000000000000000000000000000000000000000000000000000081526004016101f3906108d4565b60405180910390fd5b34600260003373ffffffffffffffffffffffffffffffffffffffff1673ffffffffffffffffffffffffffffffffffffffff168152602001908152602001600020600082825461024b91906109a1565b92505081905550565b60008054906101000a900473ffffffffffffffffffffffffffffffffffffffff1673ffffffffffffffffffffffffffffffffffffffff163373ffffffffffffffffffffffffffffffffffffffff16146102e2576040517f08c379a00000000000000000000000000000000000000000000000000000000081526004016102d9906108f4565b60405180910390fd5b80600190805190602001906102f89291906105c7565b5050565b6001805461030990610abb565b80601f016020809104026020016040519081016040528092919081815260200182805461033590610abb565b80156103825780601f1061035757610100808354040283529160200191610382565b820191906000526020600020905b81548152906001019060200180831161036557829003601f168201915b505050505081565b60026020528060005260406000206000915090505481565b60008060009054906101000a900473ffffffffffffffffffffffffffffffffffffffff1673ffffffffffffffffffffffffffffffffffffffff163373ffffffffffffffffffffffffffffffffffffffff1614610433576040517f08c379a000000000000000000000000000000000000000000000000000000000815260040161042a906108f4565b60405180910390fd5b47905090565b6000600260003373ffffffffffffffffffffffffffffffffffffffff1673ffffffffffffffffffffffffffffffffffffffff16815260200190815260200160002054905090565b60008054906101000a900473ffffffffffffffffffffffffffffffffffffffff1681565b600260003373ffffffffffffffffffffffffffffffffffffffff1673ffffffffffffffffffffffffffffffffffffffff16815260200190815260200160002054811115610526576040517f08c379a000000000000000000000000000000000000000000000000000000000815260040161051d906108b4565b60405180910390fd5b8173ffffffffffffffffffffffffffffffffffffffff166108fc829081150290604051600060405180830381858888f1935050505015801561056c573d6000803e3d6000fd5b5080600260003373ffffffffffffffffffffffffffffffffffffffff1673ffffffffffffffffffffffffffffffffffffffff16815260200190815260200160002060008282546105bc91906109f7565b925050819055505050565b8280546105d390610abb565b90600052602060002090601f0160209004810192826105f5576000855561063c565b82601f1061060e57805160ff191683800117855561063c565b8280016001018555821561063c579182015b8281111561063b578251825591602001919060010190610620565b5b509050610649919061064d565b5090565b5b8082111561066657600081600090555060010161064e565b5090565b600061067d61067884610954565b61092f565b90508281526020810184848401111561069557600080fd5b6106a0848285610a79565b509392505050565b6000813590506106b781610c5d565b92915050565b6000813590506106cc81610c74565b92915050565b600082601f8301126106e357600080fd5b81356106f384826020860161066a565b91505092915050565b60008135905061070b81610c8b565b92915050565b60006020828403121561072357600080fd5b6000610731848285016106a8565b91505092915050565b6000806040838503121561074d57600080fd5b600061075b858286016106bd565b925050602061076c858286016106fc565b9150509250929050565b60006020828403121561078857600080fd5b600082013567ffffffffffffffff8111156107a257600080fd5b6107ae848285016106d2565b91505092915050565b6107c081610a2b565b82525050565b60006107d182610985565b6107db8185610990565b93506107eb818560208601610a88565b6107f481610bab565b840191505092915050565b600061080c601c83610990565b915061081782610bbc565b602082019050919050565b600061082f601c83610990565b915061083a82610be5565b602082019050919050565b6000610852602383610990565b915061085d82610c0e565b604082019050919050565b61087181610a6f565b82525050565b600060208201905061088c60008301846107b7565b92915050565b600060208201905081810360008301526108ac81846107c6565b905092915050565b600060208201905081810360008301526108cd816107ff565b9050919050565b600060208201905081810360008301526108ed81610822565b9050919050565b6000602082019050818103600083015261090d81610845565b9050919050565b60006020820190506109296000830184610868565b92915050565b600061093961094a565b90506109458282610aed565b919050565b6000604051905090565b600067ffffffffffffffff82111561096f5761096e610b7c565b5b61097882610bab565b9050602081019050919050565b600081519050919050565b600082825260208201905092915050565b60006109ac82610a6f565b91506109b783610a6f565b9250827fffffffffffffffffffffffffffffffffffffffffffffffffffffffffffffffff038211156109ec576109eb610b1e565b5b828201905092915050565b6000610a0282610a6f565b9150610a0d83610a6f565b925082821015610a2057610a1f610b1e565b5b828203905092915050565b6000610a3682610a4f565b9050919050565b6000610a4882610a4f565b9050919050565b600073ffffffffffffffffffffffffffffffffffffffff82169050919050565b6000819050919050565b82818337600083830152505050565b60005b83811015610aa6578082015181840152602081019050610a8b565b83811115610ab5576000848401525b50505050565b60006002820490506001821680610ad357607f821691505b60208210811415610ae757610ae6610b4d565b5b50919050565b610af682610bab565b810181811067ffffffffffffffff82111715610b1557610b14610b7c565b5b80604052505050565b7f4e487b7100000000000000000000000000000000000000000000000000000000600052601160045260246000fd5b7f4e487b7100000000000000000000000000000000000000000000000000000000600052602260045260246000fd5b7f4e487b7100000000000000000000000000000000000000000000000000000000600052604160045260246000fd5b6000601f19601f8301169050919050565b7f596f7520646f6e2774206861766520656e6f756768206d6f6e65792100000000600082015250565b7f596f75206d757374206465706f73697420736f6d65206d6f6e65792100000000600082015250565b7f596f7520617265206e6f7420746865206f776e6572206f66207468697320626160008201527f6e6b210000000000000000000000000000000000000000000000000000000000602082015250565b610c6681610a2b565b8114610c7157600080fd5b50565b610c7d81610a3d565b8114610c8857600080fd5b50565b610c9481610a6f565b8114610c9f57600080fd5b5056fea2646970667358221220f2ffd23445560c7e5e00a3c8bc50b071e76036a7bf4dfcb7b26aa39a994bb76064736f6c63430008040033",
  "linkReferences": {},
  "deployedLinkReferences": {}
}